:060000000A128A115628C5
:1000460083120313081488143230F0000030F100D4
:100056000A128A1168200A128A1183120313881061
:10006600080083120313081088143230F0000030A1
:10007600F1000A128A1168200A128A1183120313E8
:10008600881008007E088A007F08820045200A1230
:100096008A118000840A04087D0603190034FF0AC9
:1000A6000319FE0A49288313B430FD000030FE0010
:1000B6007C30FF00A03084000A128A1149200A12FF
:1000C6008A1183010A128A11EE2B6A286A28FF30E8
:1000D600F0070318F10AFF30F107FF307106031D20
:1000E6007628FF307006031D79287A286A287B282F
:1000F60008003034003431340034323400343334C0
:100106000034343400343534003436340034373473
:100116000034383400343934003483120313AD010B
:10012600AB1F96289728A028AA09AB09AA0A031983
:10013600AB0AAD010314AD0DA0282A08F0002B0868
:10014600F100F2018E30FC007C08F3002D08FD0062
:100156007D08F4000A128A11DF210A128A1170083A
:1001660083120313AA007108AB007208AC00BB2807
:10017600080038308312031387000A128A113420CC
:100186000A128A116430F0000030F1000A128A1156
:1001960068200A128A1101308312031387000A129B
:1001A6008A1134200A128A116430F0000030F100FE
:1001B6000A128A1168200A128A110C30831203135C
:1001C60087000A128A1134200A128A116430F0005C
:1001D6000030F1000A128A1168200A128A11803052
:1001E6008312031387000A128A1134200A128A1115
:1001F6006430F0000030F1000A128A1168200A12F9
:100206008A110800F601F31F09290A291329F209A0
:10021600F309F20A0319F30AF6010314F60D13297A
:10022600F11F162917291D29F009F109F00A0319EA
:10023600F10A1D2971087004031922292329592955
:10024600F5010314F50D332901300310F00DF10DFE
:10025600FF3E031D28290130F4007408F5073329F1
:10026600F11F3629372927293929392971087302B7
:10027600031D3F2970087202031C422943294A299B
:100286007008F2027108031CF303F3024A290130D5
:100296000310F10CF00CFF3E031D4B290130F50253
:1002A600031D562957293929592959297608031D25
:1002B6005D296329F209F309F20A0319F30A63298E
:1002C6007308F101F1077208F001F0076A290800C6
:1002D600F601F11F6F2970297929F009F109F00A51
:1002E6000319F10AF6010314F60D7929F31F7C2987
:1002F6007D298729F209F309F20A0319F30A013065
:10030600F4007408F6068729F701F80171087004ED
:1003160003198E298F29CD29F5010314F50D9F297F
:1003260001300310F00DF10DFF3E031D942901303D
:10033600F4007408F5079F29F11FA229A329932920
:10034600A529A52901300310F70DF80DFF3E031D61
:10035600A62971087302031DB22970087202031CD4
:10036600B529B629BE297008F2027108031CF303E9
:10037600F3027714BE2901300310F10CF00CFF3E96
:10038600031DBF290130F502031DCA29CB29A52962
:10039600CD29CD297608031DD129D729F709F809D2
:1003A600F70A0319F80AD7297808F101F10777083F
:1003B600F001F007DE2908007308031DE329EB2985
:1003C600720871047004031DE929EA29012AEB2940
:1003D6000030F0000030F1000030F200592A592AAE
:1003E600012A0130F5007508F30701300310F20CFD
:1003F600F10CF00CFF3E031DF929012AFE307205AF
:10040600031D062A072AF4291F2A1F2A0130F50090
:100416007508F3070130F007003003180130F107C3
:10042600003003180130F20701300310F20CF10C12
:10043600F00CFF3E031D182AFF307205031D242A07
:10044600252A092A322A322A0130F3020130031002
:10045600F00DF10DF20DFF3E031D2A2A322AF11F7F
:10046600352A362A272A7318392A3A2A402AFF308B
:10047600F0057F30F105FF30F2050310F30C730829
:10048600F500F601F70110300310F50DF60DF70D26
:10049600FF3E031D472A7508F0047608F104770825
:1004A600F2047408031D582A592AF217080078081E
:1004B60083120313A0007908A1007A08A200031092
:1004C600210D220DA3002308A900A908031D6C2AEB
:1004D6006D2A772A0030FB000030FA000030F90060
:1004E6000030F800FF2AFF2A7808A0007908A1004A
:1004F6007A08A20017300310A20CA10CA00CFF3E34
:10050600031D7E2A2008A3002308A400F917FF3044
:10051600F805FF30F9050030FA057808A5007908D6
:10052600A6007A08A700A8018E30A902A91F9C2A56
:100536009D2AC22A2908803A8F3E0318A32AA42A94
:10054600AF2A0030FB000030FA000030F90000301E
:10055600F800FF2AFF2AAF2A01300310A80CA70CC7
:10056600A60CA50CFF3E031DB02A0130A0002008F2
:10057600A907031DBF2AC02AAF2AE62AE62A183091
:100586002902031CC72AC82ADF2A0030FB000030D4
:10059600FA000030F9000030F800FF2AFF2ADF2AAF
:1005A6000130A0000310A50DA60DA70DA80DA00BE8
:1005B600D52A0130A902DF2AA908031DE32AE42A65
:1005C600D32AE62AE62A2408031DEA2AF62AA509DA
:1005D600A609A709A809A50A0319A60A0319A70ABD
:1005E6000319A80AF62A2808FB002708FA00260895
:1005F600F9002508F800FF2A0800831203132E08C5
:10060600B4002F08B5003008B6000310350D360DBE
:10061600B7003708B800B808031D122B132B1B2B85
:100626000030AE000030AF000030B000ED2BED2BF7
:100636003108B4003208B5003308B6000310350D92
:10064600360DB7003708BD00BD08031D2B2B2C2B1C
:10065600342B0030AE000030AF000030B000ED2B80
:10066600ED2B3D087B3EB4003408B8072E08B400D5
:100676002F08B5003008B60010300310B60CB50CC4
:10068600B40CFF3E031D402B3408B7003708BD00ED
:100696003108B4003208B5003308B6001030031034
:1006A600B60CB50CB40CFF3E031D522B3408B70034
:1006B6003708BD068030B4003408BD05AF17B21741
:1006C600FF30B105FF30B2050030B3050030B90088
:1006D6000030BA000030BB000730B4003408BC005C
:1006E600742B2E1C772B782B892B3108B9073208EF
:1006F60003110318320A0319812BBA0733080311B1
:100706000318330A0319882BBB07892B0130031002
:10071600B00CAF0CAE0CFF3E031D8A2B013003104C
:10072600B10DB20DB30DFF3E031D922B0130BC027D
:10073600031D9E2B9F2B742BA02B0930B40034086D
:10074600BC00A52B2E1CA82BA92BBA2B3108B90748
:10075600320803110318320A0319B22BBA073308F9
:1007660003110318330A0319B92BBB07BA2B01303F
:100776000310B00CAF0CAE0CFF3E031DBB2B0130BB
:100786000310BB0CBA0CB90CFF3E031DC32B013082
:10079600BC02031DCF2BD02BA52BD12B3908F00083
:1007A6003A08F1003B08F2003808B4003408F300B8
:1007B6003D08B5003508F4000A128A11DF210A1235
:1007C6008A11700883120313AE007108AF00720815
:1007D600B000ED2B0800FF30831603178800831244
:1007E600031387018316031387011C3088008312C5
:1007F60003138801FF3083160313850080309F00A2
:1008060083120313C201C30144308400A030BE002A
:100816000408BF001430C0003E088400831300089B
:10082600C100BE0A3F08840041088000BF0AC00B11
:100836000F2C1D2CDE01DF010A128A11BC200A12C0
:100846008A1183120313E001E101081D2B2C2C2CC5
:100856006E2D03309F002F2C9F18322C332C2F2CFB
:10086600342C1E08BE00BF013E08BF00BE01831621
:1008760003131E08831203133E07DE00003003181D
:1008860001303F07DF005F08AB01AB075E08AA0136
:10089600AA070A128A1190200A128A1183120313D8
:1008A6002A08B1002B08B2002C08B3003730AE007E
:1008B600FA30AF003E30B0000A128A1100230A1245
:1008C6008A11831203132E08F8002F08F900300846
:1008D600FA000A128A115A220A128A117908831218
:1008E6000313E101E1077808E001E0076108D90197
:1008F600D9076008D801D8070A30F0000030F100A7
:100906006108F301F3076008F201F2070A128A117F
:100916006B210A128A11710883120313DB01DB07AC
:100926007008DA01DA076430F0000030F10061087F
:10093600F301F3076008F201F2070A128A116B212C
:100946000A128A11710883120313DD01DD0770088C
:10095600DC01DC07E830F0000330F1006108F30148
:10096600F3076008F201F2070A128A116B210A12D4
:100976008A11710883120313DF01DF077008DE0195
:10098600DE070A30F0000030F1005F08F301F307DC
:100996005E08F201F2070A128A1105210A128A116B
:1009A600700883120313BE003E07443E840083137F
:1009B600000887000A128A1123200A128A1132308F
:1009C600F0000030F1000A128A1168200A128A111A
:1009D6000A30F0000030F100831203135D08F301C2
:1009E600F3075C08F201F2070A128A1105210A12BE
:1009F6008A11700883120313BE003E07443E84002A
:100A06008313000887000A128A1123200A128A110A
:100A16003230F0000030F1000A128A1168200A1202
:100A26008A110A30F0000030F100831203135B08CC
:100A3600F301F3075A08F201F2070A128A11052197
:100A46000A128A11700883120313BE003E07443E41
:100A560084008313000887000A128A1123200A12D1
:100A66008A113230F0000030F1000A128A11682033
:100A76000A128A110A30F0000030F10083120313C3
:100A86005908F301F3075808F201F2070A128A110E
:100A960005210A128A11700883120313BE003E074D
:100AA600443E84008313000887000A128A1123201B
:100AB6000A128A113230F0000030F1000A128A114F
:100AC60068200A128A11672D8312031308196C2DE8
:100AD6006D2D672D6E2D881D712D722DB42E07304C
:100AE6009F00752D9F18782D792D752D7A2D1E084E
:100AF600BE00BF013E08BF00BE01831603131E08D9
:100B0600831203133E07DE000030031801303F074F
:100B1600DF005F08AB01AB075E08AA01AA070A124D
:100B26008A1190200A128A11831203132A08B1002F
:100B36002B08B2002C08B3003730AE00FA30AF00F5
:100B46003E30B0000A128A1100230A128A1183125B
:100B560003132E08F8002F08F9003008FA000A12CD
:100B66008A115A220A128A11790883120313E101A3
:100B7600E1077808E001E0076108D901D9076008B4
:100B8600D801D8070A30F0000030F1006108F301FF
:100B9600F3076008F201F2070A128A116B210A12A2
:100BA6008A11710883120313DB01DB077008DA016F
:100BB600DA076430F0000030F1006108F301F30752
:100BC6006008F201F2070A128A116B210A128A11D1
:100BD600710883120313DD01DD077008DC01DC07F1
:100BE600E830F0000330F1006108F301F307600814
:100BF600F201F2070A128A116B210A128A11710890
:100C060083120313DF01DF077008DE01DE070A30F7
:100C1600F0000030F1005F08F301F3075E08F2010F
:100C2600F2070A128A1105210A128A117008831224
:100C36000313BE003E07443E84008313000887006A
:100C46000A128A1123200A128A113230F00000306B
:100C5600F1000A128A1168200A128A110A30F0007D
:100C66000030F100831203135D08F301F3075C08FB
:100C7600F201F2070A128A1105210A128A11700876
:100C860083120313BE003E07443E8400831300080C
:100C960087000A128A1123200A128A113230F000C4
:100CA6000030F1000A128A1168200A128A110A30ED
:100CB600F0000030F100831203135B08F301F30721
:100CC6005A08F201F2070A128A1105210A128A113C
:100CD600700883120313BE003E07443E840083134C
:100CE600000887000A128A1123200A128A1132305C
:100CF600F0000030F1000A128A1168200A128A11E7
:100D06000A30F0000030F100831203135908F30192
:100D1600F3075808F201F2070A128A1105210A128E
:100D26008A11700883120313BE003E07443E8400F6
:100D36008313000887000A128A1123200A128A11D7
:100D46003230F0000030F1000A128A1168200A12CF
:100D56008A11AD2E831203138819B22EB32EAD2E2F
:100D6600B42E081EB72EB82E1D2C0B309F00BB2E9E
:100D76009F18BE2EBF2EBB2EC02E1E08BE00BF0162
:100D86003E08BF00BE01831603131E088312031319
:100D96003E07DE000030031801303F07DF005F0822
:100DA600AB01AB075E08AA01AA070A128A119020B6
:100DB6000A128A11831203132A08B1002B08B20003
:100DC6002C08B3003730AE00FA30AF003E30B0002A
:100DD6000A128A1100230A128A11831203132E089B
:100DE600F8002F08F9003008FA000A128A115A2270
:100DF6000A128A11790883120313E101E1077808C0
:100E0600E001E0076108D901D9076008D801D807D1
:100E16000A30F0000030F1006108F301F3076008C2
:100E2600F201F2070A128A116B210A128A1171085D
:100E360083120313DB01DB077008DA01DA0764307B
:100E4600F0000030F1006108F301F3076008F201D9
:100E5600F2070A128A116B210A128A11710883128B
:100E66000313DD01DD077008DC01DC07E830F00064
:100E76000330F1006108F301F3076008F201F2079D
:100E86000A128A116B210A128A117108831203133E
:100E9600DF01DF077008DE01DE070A30F0000030F0
:100EA600F1005F08F301F3075E08F201F2070A1288
:100EB6008A1105210A128A11700883120313BE00D3
:100EC6003E07443E84008313000887000A128A11F5
:100ED60023200A128A113230F0000030F1000A1283
:100EE6008A1168200A128A110A30F0000030F100D7
:100EF600831203135D08F301F3075C08F201F2079E
:100F06000A128A1105210A128A1170088312031324
:100F1600BE003E07443E84008313000887000A1281
:100F26008A1123200A128A113230F0000030F100B3
:100F36000A128A1168200A128A110A30F00000305B
:100F4600F100831203135B08F301F3075A08F20159
:100F5600F2070A128A1105210A128A1170088312F1
:100F66000313BE003E07443E840083130008870037
:100F76000A128A1123200A128A113230F000003038
:100F8600F1000A128A1168200A128A110A30F0004A
:100F96000030F100831203135908F301F3075808D0
:100FA600F201F2070A128A1105210A128A11700843
:100FB60083120313BE003E07443E840083130008D9
:100FC60087000A128A1123200A128A113230F00091
:100FD6000030F1000A128A1168200A128A11F32FD2
:100FE60083120313081AF82FF92FF32F1D2C1D2C2B
:0A0FF6001D2C1D2C0A128A11002880
:00000001FF
